{
  "contractName": "VoteICC",
  "abi": [
    {
      "inputs": [
        {
          "internalType": "uint256[]",
          "name": "ids",
          "type": "uint256[]"
        },
        {
          "internalType": "uint256",
          "name": "durationSeconds",
          "type": "uint256"
        }
      ],
      "stateMutability": "nonpayable",
      "type": "constructor"
    },
    {
      "anonymous": false,
      "inputs": [],
      "name": "ElectionClosed",
      "type": "event"
    },
    {
      "anonymous": false,
      "inputs": [
        {
          "indexed": true,
          "internalType": "address",
          "name": "voter",
          "type": "address"
        },
        {
          "indexed": true,
          "internalType": "uint256",
          "name": "candid",
          "type": "uint256"
        }
      ],
      "name": "Voted",
      "type": "event"
    },
    {
      "inputs": [],
      "name": "election_state_open",
      "outputs": [
        {
          "internalType": "bool",
          "name": "",
          "type": "bool"
        }
      ],
      "stateMutability": "view",
      "type": "function",
      "constant": true
    },
    {
      "inputs": [],
      "name": "endTime",
      "outputs": [
        {
          "internalType": "uint256",
          "name": "",
          "type": "uint256"
        }
      ],
      "stateMutability": "view",
      "type": "function",
      "constant": true
    },
    {
      "inputs": [
        {
          "internalType": "address",
          "name": "",
          "type": "address"
        }
      ],
      "name": "hasVoted",
      "outputs": [
        {
          "internalType": "bool",
          "name": "",
          "type": "bool"
        }
      ],
      "stateMutability": "view",
      "type": "function",
      "constant": true
    },
    {
      "inputs": [],
      "name": "owner",
      "outputs": [
        {
          "internalType": "address",
          "name": "",
          "type": "address"
        }
      ],
      "stateMutability": "view",
      "type": "function",
      "constant": true
    },
    {
      "inputs": [
        {
          "internalType": "uint256",
          "name": "id",
          "type": "uint256"
        }
      ],
      "name": "vote",
      "outputs": [],
      "stateMutability": "nonpayable",
      "type": "function"
    },
    {
      "inputs": [],
      "name": "closeElection",
      "outputs": [],
      "stateMutability": "nonpayable",
      "type": "function"
    },
    {
      "inputs": [],
      "name": "get_State",
      "outputs": [
        {
          "internalType": "uint256[]",
          "name": "votes",
          "type": "uint256[]"
        },
        {
          "internalType": "uint256[]",
          "name": "candids",
          "type": "uint256[]"
        }
      ],
      "stateMutability": "view",
      "type": "function",
      "constant": true
    },
    {
      "inputs": [],
      "name": "getWinner",
      "outputs": [
        {
          "internalType": "uint256",
          "name": "winnerId",
          "type": "uint256"
        },
        {
          "internalType": "uint256",
          "name": "winnerVotes",
          "type": "uint256"
        }
      ],
      "stateMutability": "view",
      "type": "function",
      "constant": true
    }
  ],
  "bytecode": "0x6080604052600160025f6101000a81548160ff0219169083151502179055503480156200002a575f80fd5b50604051620011bb380380620011bb8339818101604052810190620000509190620002f2565b33600260016101000a81548173ffffffffffffffffffffffffffffffffffffffff021916908373ffffffffffffffffffffffffffffffffffffffff16021790555080426200009f919062000383565b6003819055505f5b825181101562000134575f6040518060400160405280858481518110620000d357620000d2620003bd565b5b602002602001015181526020015f815250908060018154018082558091505060019003905f5260205f2090600202015f909190919091505f820151815f015560208201518160010155505080806200012b90620003ea565b915050620000a7565b50505062000436565b5f604051905090565b5f80fd5b5f80fd5b5f80fd5b5f601f19601f8301169050919050565b7f4e487b71000000000000000000000000000000000000000000000000000000005f52604160045260245ffd5b6200019a8262000152565b810181811067ffffffffffffffff82111715620001bc57620001bb62000162565b5b80604052505050565b5f620001d06200013d565b9050620001de82826200018f565b919050565b5f67ffffffffffffffff8211156200020057620001ff62000162565b5b602082029050602081019050919050565b5f80fd5b5f819050919050565b620002298162000215565b811462000234575f80fd5b50565b5f8151905062000247816200021e565b92915050565b5f620002636200025d84620001e3565b620001c5565b9050808382526020820190506020840283018581111562000289576200028862000211565b5b835b81811015620002b65780620002a1888262000237565b8452602084019350506020810190506200028b565b5050509392505050565b5f82601f830112620002d757620002d66200014e565b5b8151620002e98482602086016200024d565b91505092915050565b5f80604083850312156200030b576200030a62000146565b5b5f83015167ffffffffffffffff8111156200032b576200032a6200014a565b5b6200033985828601620002c0565b92505060206200034c8582860162000237565b9150509250929050565b7f4e487b71000000000000000000000000000000000000000000000000000000005f52601160045260245ffd5b5f6200038f8262000215565b91506200039c8362000215565b9250828201905080821115620003b757620003b662000356565b5b92915050565b7f4e487b71000000000000000000000000000000000000000000000000000000005f52603260045260245ffd5b5f620003f68262000215565b91507fffffffffffffffffffffffffffffffffffffffffffffffffffffffffffffffff82036200042b576200042a62000356565b5b600182019050919050565b610d7780620004445f395ff3fe608060405234801561000f575f80fd5b5060043610610086575f3560e01c80633197cbb6116100595780633197cbb6146101135780636c6c32d0146101315780638da5cb5b1461013b5780638e7ea5b21461015957610086565b80630121b93f1461008a578063057f426e146100a657806309eef43e146100c45780632a1321d0146100f4575b5f80fd5b6100a4600480360381019061009f91906107ad565b610178565b005b6100ae6103fb565b6040516100bb91906107f2565b60405180910390f35b6100de60048036038101906100d99190610865565b61040d565b6040516100eb91906107f2565b60405180910390f35b6100fc61042a565b60405161010a929190610947565b60405180910390f35b61011b610571565b604051610128919061098b565b60405180910390f35b610139610577565b005b61014361064e565b60405161015091906109b3565b60405180910390f35b610161610674565b60405161016f9291906109cc565b60405180910390f35b60025f9054906101000a900460ff166101c6576040517f08c379a00000000000000000000000000000000000000000000000000000000081526004016101bd90610a4d565b60405180910390fd5b600354421061020a576040517f08c379a000000000000000000000000000000000000000000000000000000000815260040161020190610ab5565b60405180910390fd5b60015f3373ffffffffffffffffffffffffffffffffffffffff1673ffffffffffffffffffffffffffffffffffffffff1681526020019081526020015f205f9054906101000a900460ff1615610294576040517f08c379a000000000000000000000000000000000000000000000000000000000815260040161028b90610b1d565b60405180910390fd5b5f805b5f8054905081101561036257825f82815481106102b7576102b6610b3b565b5b905f5260205f2090600202015f01540361034f575f81815481106102de576102dd610b3b565b5b905f5260205f2090600202016001015f8154809291906102fd90610b95565b919050555060019150823373ffffffffffffffffffffffffffffffffffffffff167f4d99b957a2bc29a30ebd96a7be8e68fe50a3c701db28a91436490b7d53870ca460405160405180910390a3610362565b808061035a90610b95565b915050610297565b50806103a3576040517f08c379a000000000000000000000000000000000000000000000000000000000815260040161039a90610c26565b60405180910390fd5b6001805f3373ffffffffffffffffffffffffffffffffffffffff1673ffffffffffffffffffffffffffffffffffffffff1681526020019081526020015f205f6101000a81548160ff0219169083151502179055505050565b60025f9054906101000a900460ff1681565b6001602052805f5260405f205f915054906101000a900460ff1681565b6060805f808054905090508067ffffffffffffffff81111561044f5761044e610c44565b5b60405190808252806020026020018201604052801561047d5781602001602082028036833780820191505090505b5092508067ffffffffffffffff81111561049a57610499610c44565b5b6040519080825280602002602001820160405280156104c85781602001602082028036833780820191505090505b5091505f5b8181101561056b575f81815481106104e8576104e7610b3b565b5b905f5260205f2090600202016001015484828151811061050b5761050a610b3b565b5b6020026020010181815250505f818154811061052a57610529610b3b565b5b905f5260205f2090600202015f015483828151811061054c5761054b610b3b565b5b602002602001018181525050808061056390610b95565b9150506104cd565b50509091565b60035481565b600260019054906101000a900473ffffffffffffffffffffffffffffffffffffffff1673ffffffffffffffffffffffffffffffffffffffff163373ffffffffffffffffffffffffffffffffffffffff1614610607576040517f08c379a00000000000000000000000000000000000000000000000000000000081526004016105fe90610cbb565b60405180910390fd5b5f60025f6101000a81548160ff0219169083151502179055507fa549b9addfc3693a1863ac5b0b13c42960d78df554c01ea6ac72a7db985df0cf60405160405180910390a1565b600260019054906101000a900473ffffffffffffffffffffffffffffffffffffffff1681565b5f8060025f9054906101000a900460ff16158061069357506003544210155b6106d2576040517f08c379a00000000000000000000000000000000000000000000000000000000081526004016106c990610d23565b60405180910390fd5b5f805f5b5f8054905081101561076957825f82815481106106f6576106f5610b3b565b5b905f5260205f209060020201600101541115610756575f818154811061071f5761071e610b3b565b5b905f5260205f2090600202016001015492505f818154811061074457610743610b3b565b5b905f5260205f2090600202015f015491505b808061076190610b95565b9150506106d6565b5080829350935050509091565b5f80fd5b5f819050919050565b61078c8161077a565b8114610796575f80fd5b50565b5f813590506107a781610783565b92915050565b5f602082840312156107c2576107c1610776565b5b5f6107cf84828501610799565b91505092915050565b5f8115159050919050565b6107ec816107d8565b82525050565b5f6020820190506108055f8301846107e3565b92915050565b5f73ffffffffffffffffffffffffffffffffffffffff82169050919050565b5f6108348261080b565b9050919050565b6108448161082a565b811461084e575f80fd5b50565b5f8135905061085f8161083b565b92915050565b5f6020828403121561087a57610879610776565b5b5f61088784828501610851565b91505092915050565b5f81519050919050565b5f82825260208201905092915050565b5f819050602082019050919050565b6108c28161077a565b82525050565b5f6108d383836108b9565b60208301905092915050565b5f602082019050919050565b5f6108f582610890565b6108ff818561089a565b935061090a836108aa565b805f5b8381101561093a57815161092188826108c8565b975061092c836108df565b92505060018101905061090d565b5085935050505092915050565b5f6040820190508181035f83015261095f81856108eb565b9050818103602083015261097381846108eb565b90509392505050565b6109858161077a565b82525050565b5f60208201905061099e5f83018461097c565b92915050565b6109ad8161082a565b82525050565b5f6020820190506109c65f8301846109a4565b92915050565b5f6040820190506109df5f83018561097c565b6109ec602083018461097c565b9392505050565b5f82825260208201905092915050565b7f566f74696e6720697320636c6f736564000000000000000000000000000000005f82015250565b5f610a376010836109f3565b9150610a4282610a03565b602082019050919050565b5f6020820190508181035f830152610a6481610a2b565b9050919050565b7f456c656374696f6e2074696d6520656e646564000000000000000000000000005f82015250565b5f610a9f6013836109f3565b9150610aaa82610a6b565b602082019050919050565b5f6020820190508181035f830152610acc81610a93565b9050919050565b7f416c726561647920766f746564000000000000000000000000000000000000005f82015250565b5f610b07600d836109f3565b9150610b1282610ad3565b602082019050919050565b5f6020820190508181035f830152610b3481610afb565b9050919050565b7f4e487b71000000000000000000000000000000000000000000000000000000005f52603260045260245ffd5b7f4e487b71000000000000000000000000000000000000000000000000000000005f52601160045260245ffd5b5f610b9f8261077a565b91507fffffffffffffffffffffffffffffffffffffffffffffffffffffffffffffffff8203610bd157610bd0610b68565b5b600182019050919050565b7f43616e64696461746520646f6573206e6f7420657869737400000000000000005f82015250565b5f610c106018836109f3565b9150610c1b82610bdc565b602082019050919050565b5f6020820190508181035f830152610c3d81610c04565b9050919050565b7f4e487b71000000000000000000000000000000000000000000000000000000005f52604160045260245ffd5b7f4f6e6c79206f776e65722063616e2063616c6c207468697300000000000000005f82015250565b5f610ca56018836109f3565b9150610cb082610c71565b602082019050919050565b5f6020820190508181035f830152610cd281610c99565b9050919050565b7f456c656374696f6e206e6f742066696e697368656400000000000000000000005f82015250565b5f610d0d6015836109f3565b9150610d1882610cd9565b602082019050919050565b5f6020820190508181035f830152610d3a81610d01565b905091905056fea26469706673582212207d838e40d1f8caddebdbb02f1218ff19a8a30381ee49d0f3350eb95dbefa8f6264736f6c63430008150033",
  "immutableReferences": {},
  "source": "// SPDX-License-Identifier: MIT\npragma solidity >=0.4.22 <0.9.0;\n\ncontract VoteICC {\n\n  struct Candidate {\n    uint candid;\n    uint votes;\n  }\n\n  Candidate[] internal total_Candidates;\n  mapping(address => bool) public hasVoted;\n  bool public election_state_open = true;\n  address public owner;\n  uint public endTime;\n\n  event Voted(address indexed voter, uint indexed candid);\n  event ElectionClosed();\n\n  modifier onlyOwner() {\n    require(msg.sender == owner, \"Only owner can call this\");\n    _;\n  }\n\n  modifier electionOpen() {\n    require(election_state_open, \"Voting is closed\");\n    require(block.timestamp < endTime, \"Election time ended\");\n    _;\n  }\n\n  constructor(uint[] memory ids, uint durationSeconds) {\n    owner = msg.sender;\n    endTime = block.timestamp + durationSeconds;\n    for (uint i = 0; i < ids.length; i++) {\n      total_Candidates.push(Candidate(ids[i], 0));\n    }\n  }\n\n  function vote(uint id) public electionOpen {\n    require(!hasVoted[msg.sender], \"Already voted\");\n    bool found = false;\n    for (uint i = 0; i < total_Candidates.length; i++) {\n      if (total_Candidates[i].candid == id) {\n        total_Candidates[i].votes++;\n        found = true;\n        emit Voted(msg.sender, id);\n        break;\n      }\n    }\n    require(found, \"Candidate does not exist\");\n    hasVoted[msg.sender] = true;\n  }\n\n  function closeElection() public onlyOwner {\n    election_state_open = false;\n    emit ElectionClosed();\n  }\n\n  function get_State() public view returns (uint[] memory votes, uint[] memory candids) {\n    uint len = total_Candidates.length;\n    votes = new uint[](len);\n    candids = new uint[](len);\n\n    for (uint x = 0; x < len; x++) {\n      votes[x] = total_Candidates[x].votes;\n      candids[x] = total_Candidates[x].candid;\n    }\n\n    return (votes, candids);\n  }\n\n  function getWinner() public view returns (uint winnerId, uint winnerVotes) {\n    require(!election_state_open || block.timestamp >= endTime, \"Election not finished\");\n    uint maxVotes = 0;\n    uint winner = 0;\n    for (uint i = 0; i < total_Candidates.length; i++) {\n      if (total_Candidates[i].votes > maxVotes) {\n        maxVotes = total_Candidates[i].votes;\n        winner = total_Candidates[i].candid;\n      }\n    }\n    return (winner, maxVotes);\n  }\n}\n",
  "sourcePath": "/home/pirate/Documents/codes/web3/contracts/Voting.sol",
  "compiler": {
    "name": "solc",
    "version": "0.8.21+commit.d9974bed.Emscripten.clang"
  },
  "schemaVersion": "3.4.16",
  "updatedAt": "2025-09-05T22:12:41.245Z",
  "networkType": "ethereum",
  "devdoc": {
    "kind": "dev",
    "methods": {},
    "version": 1
  },
  "userdoc": {
    "kind": "user",
    "methods": {},
    "version": 1
  }
}