{
  "contractName": "Vote",
  "abi": [
    {
      "inputs": [
        {
          "internalType": "uint256[]",
          "name": "ids",
          "type": "uint256[]"
        }
      ],
      "stateMutability": "nonpayable",
      "type": "constructor"
    },
    {
      "inputs": [
        {
          "internalType": "uint256",
          "name": "id",
          "type": "uint256"
        }
      ],
      "name": "vote",
      "outputs": [],
      "stateMutability": "nonpayable",
      "type": "function"
    },
    {
      "inputs": [],
      "name": "get_State",
      "outputs": [
        {
          "internalType": "uint256[]",
          "name": "votes",
          "type": "uint256[]"
        },
        {
          "internalType": "uint256[]",
          "name": "candids",
          "type": "uint256[]"
        }
      ],
      "stateMutability": "view",
      "type": "function",
      "constant": true
    }
  ],
  "bytecode": "0x60806040526001805f6101000a81548160ff02191690831515021790555034801562000029575f80fd5b50604051620009ab380380620009ab83398181016040528101906200004f91906200029b565b5f5b8151811015620000de575f60405180604001604052808484815181106200007d576200007c620002ea565b5b602002602001015181526020015f815250908060018154018082558091505060019003905f5260205f2090600202015f909190919091505f820151815f01556020820151816001015550508080620000d59062000344565b91505062000051565b505062000390565b5f604051905090565b5f80fd5b5f80fd5b5f80fd5b5f601f19601f8301169050919050565b7f4e487b71000000000000000000000000000000000000000000000000000000005f52604160045260245ffd5b6200014382620000fb565b810181811067ffffffffffffffff821117156200016557620001646200010b565b5b80604052505050565b5f62000179620000e6565b905062000187828262000138565b919050565b5f67ffffffffffffffff821115620001a957620001a86200010b565b5b602082029050602081019050919050565b5f80fd5b5f819050919050565b620001d281620001be565b8114620001dd575f80fd5b50565b5f81519050620001f081620001c7565b92915050565b5f6200020c62000206846200018c565b6200016e565b90508083825260208201905060208402830185811115620002325762000231620001ba565b5b835b818110156200025f57806200024a8882620001e0565b84526020840193505060208101905062000234565b5050509392505050565b5f82601f83011262000280576200027f620000f7565b5b815162000292848260208601620001f6565b91505092915050565b5f60208284031215620002b357620002b2620000ef565b5b5f82015167ffffffffffffffff811115620002d357620002d2620000f3565b5b620002e18482850162000269565b91505092915050565b7f4e487b71000000000000000000000000000000000000000000000000000000005f52603260045260245ffd5b7f4e487b71000000000000000000000000000000000000000000000000000000005f52601160045260245ffd5b5f6200035082620001be565b91507fffffffffffffffffffffffffffffffffffffffffffffffffffffffffffffffff820362000385576200038462000317565b5b600182019050919050565b61060d806200039e5f395ff3fe608060405234801561000f575f80fd5b5060043610610034575f3560e01c80630121b93f146100385780632a1321d014610054575b5f80fd5b610052600480360381019061004d9190610312565b610073565b005b61005c610194565b60405161006a9291906103f4565b60405180910390f35b5f6001905060015f9054906101000a900460ff166100c6576040517f08c379a00000000000000000000000000000000000000000000000000000000081526004016100bd90610483565b60405180910390fd5b5f5b5f8054905081101561014e57825f82815481106100e8576100e76104a1565b5b905f5260205f2090600202015f01540361013b575f818154811061010f5761010e6104a1565b5b905f5260205f2090600202016001015f81548092919061012e906104fb565b91905055505f915061014e565b8080610146906104fb565b9150506100c8565b508015610190576040517f08c379a00000000000000000000000000000000000000000000000000000000081526004016101879061058c565b60405180910390fd5b5050565b6060805f808054905090508067ffffffffffffffff8111156101b9576101b86105aa565b5b6040519080825280602002602001820160405280156101e75781602001602082028036833780820191505090505b5092508067ffffffffffffffff811115610204576102036105aa565b5b6040519080825280602002602001820160405280156102325781602001602082028036833780820191505090505b5091505f5b818110156102d5575f8181548110610252576102516104a1565b5b905f5260205f20906002020160010154848281518110610275576102746104a1565b5b6020026020010181815250505f8181548110610294576102936104a1565b5b905f5260205f2090600202015f01548382815181106102b6576102b56104a1565b5b60200260200101818152505080806102cd906104fb565b915050610237565b50509091565b5f80fd5b5f819050919050565b6102f1816102df565b81146102fb575f80fd5b50565b5f8135905061030c816102e8565b92915050565b5f60208284031215610327576103266102db565b5b5f610334848285016102fe565b91505092915050565b5f81519050919050565b5f82825260208201905092915050565b5f819050602082019050919050565b61036f816102df565b82525050565b5f6103808383610366565b60208301905092915050565b5f602082019050919050565b5f6103a28261033d565b6103ac8185610347565b93506103b783610357565b805f5b838110156103e75781516103ce8882610375565b97506103d98361038c565b9250506001810190506103ba565b5085935050505092915050565b5f6040820190508181035f83015261040c8185610398565b905081810360208301526104208184610398565b90509392505050565b5f82825260208201905092915050565b7f536f72727920566f74696e6720697320436c6f736564000000000000000000005f82015250565b5f61046d601683610429565b915061047882610439565b602082019050919050565b5f6020820190508181035f83015261049a81610461565b9050919050565b7f4e487b71000000000000000000000000000000000000000000000000000000005f52603260045260245ffd5b7f4e487b71000000000000000000000000000000000000000000000000000000005f52601160045260245ffd5b5f610505826102df565b91507fffffffffffffffffffffffffffffffffffffffffffffffffffffffffffffffff8203610537576105366104ce565b5b600182019050919050565b7f43616e6469646174657320646f6573206e6f74206578697374000000000000005f82015250565b5f610576601983610429565b915061058182610542565b602082019050919050565b5f6020820190508181035f8301526105a38161056a565b9050919050565b7f4e487b71000000000000000000000000000000000000000000000000000000005f52604160045260245ffdfea2646970667358221220ad9762194faf071c215be921a731cb0b9d6a7b941fd852c68f64012d4fe2452064736f6c63430008150033",
  "immutableReferences": {},
  "source": "// SPDX-License-Identifier: MIT\npragma solidity >=0.4.22 <0.9.0;\n\ncontract Vote {\n\n  struct Candidates{\n\n      uint candid;\n      uint votes;\n  }\n\n  Candidates[] internal total_Candidates;\n  bool election_state_open = true;\n  constructor(uint[] memory ids) {\n    for(uint i=0; i<ids.length;i++){\n      total_Candidates.push(Candidates(ids[i],0));\n    }\n  }\n  function vote(uint id)public {\n    bool empty = true;\n    require(election_state_open,\"Sorry Voting is Closed\");\n    for(uint i=0;i< total_Candidates.length;i++){\n      if (total_Candidates[i].candid==id){\n          total_Candidates[i].votes++;\n          empty=false;\n          break;\n\n      }\n    }\n\n    require(!empty,\"Candidates does not exist\");\n  \n  }\n\n  function get_State()public view returns ( uint[] memory votes, uint[] memory candids){\n    \n  uint len = total_Candidates.length;\n  votes = new uint[](len);\n  candids = new uint[](len);\n\n    for(uint x=0; x<len;x++){\n      votes[x] = total_Candidates[x].votes;\n      candids[x] = total_Candidates[x].candid;\n    }\n   \n    return(votes,candids);\n  }\n}\n",
  "sourcePath": "/home/pirate/Documents/codes/web3/contracts/Voting.sol",
  "compiler": {
    "name": "solc",
    "version": "0.8.21+commit.d9974bed.Emscripten.clang"
  },
  "schemaVersion": "3.4.16",
  "updatedAt": "2025-09-05T19:50:57.624Z",
  "networkType": "ethereum",
  "devdoc": {
    "kind": "dev",
    "methods": {},
    "version": 1
  },
  "userdoc": {
    "kind": "user",
    "methods": {},
    "version": 1
  }
}